{
  "contractName": "HireMe",
  "abi": [
    {
      "constant": true,
      "inputs": [
        {
          "name": "",
          "type": "address"
        }
      ],
      "name": "addressBalance",
      "outputs": [
        {
          "name": "",
          "type": "uint256"
        }
      ],
      "payable": false,
      "stateMutability": "view",
      "type": "function"
    },
    {
      "constant": true,
      "inputs": [
        {
          "name": "",
          "type": "uint256"
        }
      ],
      "name": "bids",
      "outputs": [
        {
          "name": "exists",
          "type": "bool"
        },
        {
          "name": "id",
          "type": "uint256"
        },
        {
          "name": "timestamp",
          "type": "uint256"
        },
        {
          "name": "bidder",
          "type": "address"
        },
        {
          "name": "amount",
          "type": "uint256"
        },
        {
          "name": "email",
          "type": "string"
        },
        {
          "name": "organisation",
          "type": "string"
        }
      ],
      "payable": false,
      "stateMutability": "view",
      "type": "function"
    },
    {
      "constant": true,
      "inputs": [],
      "name": "manuallyEnded",
      "outputs": [
        {
          "name": "",
          "type": "bool"
        }
      ],
      "payable": false,
      "stateMutability": "view",
      "type": "function"
    },
    {
      "constant": true,
      "inputs": [],
      "name": "donated",
      "outputs": [
        {
          "name": "",
          "type": "bool"
        }
      ],
      "payable": false,
      "stateMutability": "view",
      "type": "function"
    },
    {
      "constant": true,
      "inputs": [],
      "name": "owner",
      "outputs": [
        {
          "name": "",
          "type": "address"
        }
      ],
      "payable": false,
      "stateMutability": "view",
      "type": "function"
    },
    {
      "constant": true,
      "inputs": [],
      "name": "charityAddress",
      "outputs": [
        {
          "name": "",
          "type": "address"
        }
      ],
      "payable": false,
      "stateMutability": "view",
      "type": "function"
    },
    {
      "constant": true,
      "inputs": [
        {
          "name": "",
          "type": "uint256"
        }
      ],
      "name": "bidIds",
      "outputs": [
        {
          "name": "",
          "type": "uint256"
        }
      ],
      "payable": false,
      "stateMutability": "view",
      "type": "function"
    },
    {
      "constant": false,
      "inputs": [
        {
          "name": "newOwner",
          "type": "address"
        }
      ],
      "name": "transferOwnership",
      "outputs": [],
      "payable": false,
      "stateMutability": "nonpayable",
      "type": "function"
    },
    {
      "constant": true,
      "inputs": [],
      "name": "AUTHORSIGHASH",
      "outputs": [
        {
          "name": "",
          "type": "string"
        }
      ],
      "payable": false,
      "stateMutability": "view",
      "type": "function"
    },
    {
      "anonymous": false,
      "inputs": [
        {
          "indexed": true,
          "name": "id",
          "type": "uint256"
        },
        {
          "indexed": true,
          "name": "bidder",
          "type": "address"
        },
        {
          "indexed": true,
          "name": "amount",
          "type": "uint256"
        }
      ],
      "name": "BidMade",
      "type": "event"
    },
    {
      "anonymous": false,
      "inputs": [
        {
          "indexed": true,
          "name": "bidder",
          "type": "address"
        },
        {
          "indexed": true,
          "name": "amount",
          "type": "uint256"
        }
      ],
      "name": "Reclaimed",
      "type": "event"
    },
    {
      "anonymous": false,
      "inputs": [
        {
          "indexed": true,
          "name": "amount",
          "type": "uint256"
        }
      ],
      "name": "Donated",
      "type": "event"
    },
    {
      "anonymous": false,
      "inputs": [
        {
          "indexed": true,
          "name": "previousOwner",
          "type": "address"
        },
        {
          "indexed": true,
          "name": "newOwner",
          "type": "address"
        }
      ],
      "name": "OwnershipTransferred",
      "type": "event"
    },
    {
      "constant": false,
      "inputs": [],
      "name": "manuallyEndAuction",
      "outputs": [],
      "payable": false,
      "stateMutability": "nonpayable",
      "type": "function"
    },
    {
      "constant": false,
      "inputs": [
        {
          "name": "_email",
          "type": "string"
        },
        {
          "name": "_organisation",
          "type": "string"
        }
      ],
      "name": "bid",
      "outputs": [],
      "payable": true,
      "stateMutability": "payable",
      "type": "function"
    },
    {
      "constant": false,
      "inputs": [],
      "name": "reclaim",
      "outputs": [],
      "payable": false,
      "stateMutability": "nonpayable",
      "type": "function"
    },
    {
      "constant": false,
      "inputs": [],
      "name": "donate",
      "outputs": [],
      "payable": false,
      "stateMutability": "nonpayable",
      "type": "function"
    },
    {
      "constant": true,
      "inputs": [],
      "name": "calcCurrentMinBid",
      "outputs": [
        {
          "name": "",
          "type": "uint256"
        }
      ],
      "payable": false,
      "stateMutability": "view",
      "type": "function"
    },
    {
      "constant": true,
      "inputs": [
        {
          "name": "_bidder",
          "type": "address"
        }
      ],
      "name": "calcAmtReclaimable",
      "outputs": [
        {
          "name": "",
          "type": "uint256"
        }
      ],
      "payable": false,
      "stateMutability": "view",
      "type": "function"
    },
    {
      "constant": true,
      "inputs": [],
      "name": "getBidIds",
      "outputs": [
        {
          "name": "",
          "type": "uint256[]"
        }
      ],
      "payable": false,
      "stateMutability": "view",
      "type": "function"
    },
    {
      "constant": true,
      "inputs": [],
      "name": "expiryTimestamp",
      "outputs": [
        {
          "name": "",
          "type": "uint256"
        }
      ],
      "payable": false,
      "stateMutability": "view",
      "type": "function"
    },
    {
      "constant": true,
      "inputs": [],
      "name": "hasExpired",
      "outputs": [
        {
          "name": "",
          "type": "bool"
        }
      ],
      "payable": false,
      "stateMutability": "view",
      "type": "function"
    }
  ],
  "bytecode": "0x60606040526000600360006101000a81548160ff0219169083151502179055506000600360016101000a81548160ff02191690831515021790555073635599b0ab4b5c6b1392e0a2d1d69cf7d1dddf02600560006101000a81548173ffffffffffffffffffffffffffffffffffffffff021916908373ffffffffffffffffffffffffffffffffffffffff160217905550336000806101000a81548173ffffffffffffffffffffffffffffffffffffffff021916908373ffffffffffffffffffffffffffffffffffffffff160217905550611791806100de6000396000f3006060604052600436106100fc576000357c0100000000000000000000000000000000000000000000000000000000900463ffffffff1680633ec4de35146101015780634423c5f11461014e57806353b382ea146102e3578063639bbb371461031057806380e9071b1461033d5780638da5cb5b1461035257806390e64d13146103a7578063a4f2613d146103d4578063ade6e2aa14610469578063afcf2fc414610492578063ceacc749146104e7578063d213f10914610510578063d3946ea41461055d578063da9d56d714610572578063ec3e4e6f146105dc578063ed88c68e14610613578063f2fde38b14610628578063f4da6a5414610661575b600080fd5b341561010c57600080fd5b610138600480803573ffffffffffffffffffffffffffffffffffffffff169060200190919050506106ef565b6040518082815260200191505060405180910390f35b341561015957600080fd5b61016f6004808035906020019091905050610707565b60405180881515151581526020018781526020018681526020018573ffffffffffffffffffffffffffffffffffffffff1673ffffffffffffffffffffffffffffffffffffffff168152602001848152602001806020018060200183810383528581815460018160011615610100020316600290048152602001915080546001816001161561010002031660029004801561024a5780601f1061021f5761010080835404028352916020019161024a565b820191906000526020600020905b81548152906001019060200180831161022d57829003601f168201915b50508381038252848181546001816001161561010002031660029004815260200191508054600181600116156101000203166002900480156102cd5780601f106102a2576101008083540402835291602001916102cd565b820191906000526020600020905b8154815290600101906020018083116102b057829003601f168201915b5050995050505050505050505060405180910390f35b34156102ee57600080fd5b6102f6610783565b604051808215151515815260200191505060405180910390f35b341561031b57600080fd5b610323610796565b604051808215151515815260200191505060405180910390f35b341561034857600080fd5b6103506107a9565b005b341561035d57600080fd5b610365610921565b604051808273ffffffffffffffffffffffffffffffffffffffff1673ffffffffffffffffffffffffffffffffffffffff16815260200191505060405180910390f35b34156103b257600080fd5b6103ba610946565b604051808215151515815260200191505060405180910390f35b610467600480803590602001908201803590602001908080601f0160208091040260200160405190810160405280939291908181526020018383808284378201915050505050509190803590602001908201803590602001908080601f016020809104026020016040519081016040528093929190818152602001838380828437820191505050505050919050506109f4565b005b341561047457600080fd5b61047c610d95565b6040518082815260200191505060405180910390f35b341561049d57600080fd5b6104a5610e0f565b604051808273ffffffffffffffffffffffffffffffffffffffff1673ffffffffffffffffffffffffffffffffffffffff16815260200191505060405180910390f35b34156104f257600080fd5b6104fa610e35565b6040518082815260200191505060405180910390f35b341561051b57600080fd5b610547600480803573ffffffffffffffffffffffffffffffffffffffff16906020019091905050610ea5565b6040518082815260200191505060405180910390f35b341561056857600080fd5b610570611026565b005b341561057d57600080fd5b6105856110d4565b6040518080602001828103825283818151815260200191508051906020019060200280838360005b838110156105c85780820151818401526020810190506105ad565b505050509050019250505060405180910390f35b34156105e757600080fd5b6105fd6004808035906020019091905050611132565b6040518082815260200191505060405180910390f35b341561061e57600080fd5b610626611156565b005b341561063357600080fd5b61065f600480803573ffffffffffffffffffffffffffffffffffffffff16906020019091905050611388565b005b341561066c57600080fd5b6106746114dd565b6040518080602001828103825283818151815260200191508051906020019080838360005b838110156106b4578082015181840152602081019050610699565b50505050905090810190601f1680156106e15780820380516001836020036101000a031916815260200191505b509250505060405180910390f35b60046020528060005260406000206000915090505481565b60018181548110151561071657fe5b90600052602060002090600702016000915090508060000160009054906101000a900460ff16908060010154908060020154908060030160009054906101000a900473ffffffffffffffffffffffffffffffffffffffff1690806004015490806005019080600601905087565b600360019054906101000a900460ff1681565b600360009054906101000a900460ff1681565b60008060003392506107ba83610ea5565b91506002600180549050101515156107d157600080fd5b600360019054906101000a900460ff161515156107ed57600080fd5b6000821115156107fc57600080fd5b610845600460008573ffffffffffffffffffffffffffffffffffffffff1673ffffffffffffffffffffffffffffffffffffffff168152602001908152602001600020548361153d565b90506000811015151561085457fe5b80600460008573ffffffffffffffffffffffffffffffffffffffff1673ffffffffffffffffffffffffffffffffffffffff168152602001908152602001600020819055508273ffffffffffffffffffffffffffffffffffffffff166108fc839081150290604051600060405180830381858888f1935050505015156108d857600080fd5b818373ffffffffffffffffffffffffffffffffffffffff167fcab347be18c8c37ef504626a027a12ea6725f491b5f5b154778d8d0c54f7841e60405160405180910390a3505050565b6000809054906101000a900473ffffffffffffffffffffffffffffffffffffffff1681565b6000806001805490509050600081141561096357600091506109f0565b3073ffffffffffffffffffffffffffffffffffffffff1663ade6e2aa6000604051602001526040518163ffffffff167c0100000000000000000000000000000000000000000000000000000000028152600401602060405180830381600087803b15156109cf57600080fd5b6102c65a03f115156109e057600080fd5b5050506040518051905042101591505b5090565b60008060003392503491506001805490509050610a0f610946565b158015610a295750600360019054906101000a900460ff16155b1515610a3457600080fd5b6000809054906101000a900473ffffffffffffffffffffffffffffffffffffffff1673ffffffffffffffffffffffffffffffffffffffff168373ffffffffffffffffffffffffffffffffffffffff1614158015610adf5750600560009054906101000a900473ffffffffffffffffffffffffffffffffffffffff1673ffffffffffffffffffffffffffffffffffffffff168373ffffffffffffffffffffffffffffffffffffffff1614155b1515610aea57600080fd5b600073ffffffffffffffffffffffffffffffffffffffff168373ffffffffffffffffffffffffffffffffffffffff1614151515610b2657600080fd5b60008551111515610b3657600080fd5b60008451111515610b4657600080fd5b610b4e610e35565b8210151515610b5c57600080fd5b60018054806001018281610b709190611574565b9160005260206000209060070201600060e0604051908101604052806001151581526020018581526020014281526020018773ffffffffffffffffffffffffffffffffffffffff16815260200186815260200189815260200188815250909190915060008201518160000160006101000a81548160ff021916908315150217905550602082015181600101556040820151816002015560608201518160030160006101000a81548173ffffffffffffffffffffffffffffffffffffffff021916908373ffffffffffffffffffffffffffffffffffffffff1602179055506080820151816004015560a0820151816005019080519060200190610c739291906115a6565b5060c0820151816006019080519060200190610c909291906115a6565b5050505060028054806001018281610ca89190611626565b916000526020600020900160008390919091505550610d06600460008573ffffffffffffffffffffffffffffffffffffffff1673ffffffffffffffffffffffffffffffffffffffff1681526020019081526020016000205483611556565b600460008573ffffffffffffffffffffffffffffffffffffffff1673ffffffffffffffffffffffffffffffffffffffff16815260200190815260200160002081905550818373ffffffffffffffffffffffffffffffffffffffff16827f1deb95696ada9b84bb35fed5fed94d6f185f9b547732b7e1b48df32597b5dfba60405160405180910390a45050505050565b60008060006001805490509150600082111515610db157600080fd5b6001610dbe83600161153d565b815481101515610dca57fe5b9060005260206000209060070201600201549050600482111515610dfb57610df481610258611556565b9250610e0a565b610e0781610258611556565b92505b505090565b600560009054906101000a900473ffffffffffffffffffffffffffffffffffffffff1681565b6000806000806001805490501415610e5757670de0b6b3a76400009250610ea0565b610e67600180549050600161153d565b9150600182815481101515610e7857fe5b9060005260206000209060070201600401549050610e9d81662386f26fc10000611556565b92505b505090565b600080600080600460008673ffffffffffffffffffffffffffffffffffffffff1673ffffffffffffffffffffffffffffffffffffffff16815260200190815260200160002054925060006001805490501415610f04576000935061101e565b8473ffffffffffffffffffffffffffffffffffffffff166001610f2d600180549050600161153d565b815481101515610f3957fe5b906000526020600020906007020160030160009054906101000a900473ffffffffffffffffffffffffffffffffffffffff1673ffffffffffffffffffffffffffffffffffffffff16141561101a57610f8f610946565b15610fd7576001610fa6600180549050600261153d565b815481101515610fb257fe5b9060005260206000209060070201600401549150610fd0838361153d565b935061101e565b6001610fe9600180549050600161153d565b815481101515610ff557fe5b9060005260206000209060070201600401549050611013838261153d565b935061101e565b8293505b505050919050565b6000809054906101000a900473ffffffffffffffffffffffffffffffffffffffff1673ffffffffffffffffffffffffffffffffffffffff163373ffffffffffffffffffffffffffffffffffffffff1614151561108157600080fd5b60001515600360019054906101000a900460ff1615151415156110a357600080fd5b60006001805490501415156110b757600080fd5b6001600360016101000a81548160ff021916908315150217905550565b6110dc611652565b600280548060200260200160405190810160405280929190818152602001828054801561112857602002820191906000526020600020905b815481526020019060010190808311611114575b5050505050905090565b60028181548110151561114157fe5b90600052602060002090016000915090505481565b6000801515600360009054906101000a900460ff16151514151561117657fe5b6000809054906101000a900473ffffffffffffffffffffffffffffffffffffffff1673ffffffffffffffffffffffffffffffffffffffff163373ffffffffffffffffffffffffffffffffffffffff16148061121e5750600560009054906101000a900473ffffffffffffffffffffffffffffffffffffffff1673ffffffffffffffffffffffffffffffffffffffff163373ffffffffffffffffffffffffffffffffffffffff16145b151561122957600080fd5b611231610946565b151561123c57600080fd5b600360019054906101000a900460ff1615151561125557fe5b600060018054905011151561126657fe5b60018080549050141561129c576001600081548110151561128357fe5b90600052602060002090600702016004015490506112cf565b60016112ae600180549050600261153d565b8154811015156112ba57fe5b90600052602060002090600702016004015490505b6000811115156112db57fe5b6001600360006101000a81548160ff021916908315150217905550600560009054906101000a900473ffffffffffffffffffffffffffffffffffffffff1673ffffffffffffffffffffffffffffffffffffffff166108fc829081150290604051600060405180830381858888f19350505050151561135857600080fd5b807fa7035481213199a4d64792e8c2fc7bff2b334e0935d33eaabc063a116485663360405160405180910390a250565b6000809054906101000a900473ffffffffffffffffffffffffffffffffffffffff1673ffffffffffffffffffffffffffffffffffffffff163373ffffffffffffffffffffffffffffffffffffffff161415156113e357600080fd5b600073ffffffffffffffffffffffffffffffffffffffff168173ffffffffffffffffffffffffffffffffffffffff161415151561141f57600080fd5b8073ffffffffffffffffffffffffffffffffffffffff166000809054906101000a900473ffffffffffffffffffffffffffffffffffffffff1673ffffffffffffffffffffffffffffffffffffffff167f8be0079c531659141344cd1fd0a4f28419497f9722a3daafe3b4186f6b6457e060405160405180910390a3806000806101000a81548173ffffffffffffffffffffffffffffffffffffffff021916908373ffffffffffffffffffffffffffffffffffffffff16021790555050565b606060405190810160405280604081526020017f386338623832613264383361333363623066343566356636623232623435633181526020017f393535663038666335346537616234643965373666623736383433633439313881525081565b600082821115151561154b57fe5b818303905092915050565b600080828401905083811015151561156a57fe5b8091505092915050565b8154818355818115116115a1576007028160070283600052602060002091820191016115a09190611666565b5b505050565b828054600181600116156101000203166002900490600052602060002090601f016020900481019282601f106115e757805160ff1916838001178555611615565b82800160010185558215611615579182015b828111156116145782518255916020019190600101906115f9565b5b50905061162291906116f8565b5090565b81548183558181151161164d5781836000526020600020918201910161164c91906116f8565b5b505050565b602060405190810160405280600081525090565b6116f591905b808211156116f157600080820160006101000a81549060ff0219169055600182016000905560028201600090556003820160006101000a81549073ffffffffffffffffffffffffffffffffffffffff021916905560048201600090556005820160006116d8919061171d565b6006820160006116e8919061171d565b5060070161166c565b5090565b90565b61171a91905b808211156117165760008160009055506001016116fe565b5090565b90565b50805460018160011615610100020316600290046000825580601f106117435750611762565b601f01602090049060005260206000209081019061176191906116f8565b5b505600a165627a7a7230582045941aefe414bffce99c68053a40d38e722e52b8206b833041d28549684c59200029",
  "source": "pragma solidity 0.4.19;\n\nimport \"zeppelin-solidity/contracts/math/SafeMath.sol\";\nimport \"zeppelin-solidity/contracts/ownership/Ownable.sol\";\n\n\n// The frontend for this smart contract is a dApp hosted at\n// https://hire.kohweijie.com\ncontract HireMe is Ownable {\n    struct Bid { // Data structure representing an individual bid\n        bool exists;         // 0. Whether the bid exists\n        uint id;             // 1. The ID of the bid.\n        uint timestamp;      // 2. The timestamp of when the bid was made\n        address bidder;      // 3. The address of the bidder\n        uint amount;         // 4. The amount of ETH in the bid\n        string email;        // 5. The bidder's email address\n        string organisation; // 6. The bidder's organisation\n    }\n\n    event BidMade(uint indexed id, address indexed bidder, uint indexed amount);\n    event Reclaimed(address indexed bidder, uint indexed amount);\n    event Donated(uint indexed amount);\n\n    Bid[] public bids; // Array of all bids\n    uint[] public bidIds; // Array of all bid IDs\n\n    // Constants which govern the bid prices and auction duration\n    uint private constant MIN_BID = 1 ether;\n    uint private constant BID_STEP = 0.01 ether;\n    uint private constant INITIAL_BIDS = 4;\n\n    //uint private constant EXPIRY_DAYS_BEFORE = 7 days;\n    //uint private constant EXPIRY_DAYS_AFTER = 3 days;\n\n    // For development only\n    uint private constant EXPIRY_DAYS_BEFORE = 10 minutes;\n    uint private constant EXPIRY_DAYS_AFTER = 10 minutes;\n\n    // SHA256 checksum of https://github.com/weijiekoh/hireme/blob/master/AUTHOR.asc\n    // See the bottom of this file for the contents of AUTHOR.asc\n    string public constant AUTHORSIGHASH = \"8c8b82a2d83a33cb0f45f5f6b22b45c1955f08fc54e7ab4d9e76fb76843c4918\";\n\n    // Whether the donate() function has been called\n    bool public donated = false;\n\n    // Whether the manuallyEndAuction() function has been called\n    bool public manuallyEnded = false;\n\n    // Tracks the total amount of ETH currently residing in the contract\n    // balance per address.\n    mapping (address => uint) public addressBalance;\n\n    // The Internet Archive's ETH donation address\n    address public charityAddress = 0x635599b0ab4b5c6B1392e0a2D1d69cF7d1ddDF02;\n\n    // Only the contract owner may end this contract, and may do so only if\n    // there are 0 bids.\n    function manuallyEndAuction () public onlyOwner {\n        require(manuallyEnded == false);\n        require(bids.length == 0);\n\n        manuallyEnded = true;\n    }\n\n    // Place a bid.\n    function bid(string _email, string _organisation) public payable {\n        address _bidder = msg.sender;\n        uint _amount = msg.value;\n        uint _id = bids.length;\n\n        // The auction must not be over\n        require(!hasExpired() && !manuallyEnded);\n\n        // The bidder must be neither the contract owner nor the charity\n        // donation address\n        require(_bidder != owner && _bidder != charityAddress);\n\n        // The bidder address, email, and organisation must valid\n        require(_bidder != address(0));\n        require(bytes(_email).length > 0);\n        require(bytes(_organisation).length > 0);\n\n        // Make sure the amount bid is more than the rolling minimum bid\n        require(_amount >= calcCurrentMinBid());\n\n        // Update the state with the new bid\n        bids.push(Bid(true, _id, now, _bidder, _amount, _email, _organisation));\n        bidIds.push(_id);\n\n        // Add to, not replace, the state variable which tracks the total\n        // amount paid per address, because a bidder may make multiple bids\n        addressBalance[_bidder] = SafeMath.add(addressBalance[_bidder], _amount);\n\n        // Emit the event\n        BidMade(_id, _bidder, _amount);\n    }\n\n    function reclaim () public {\n        address _caller = msg.sender;\n        uint _amount = calcAmtReclaimable(_caller);\n\n        // There must be at least 2 bids. Note that if there is only 1 bid and\n        // that bid is the winning bid, it cannot be reclaimed.\n        require(bids.length >= 2);\n\n        // The auction must not have been manually ended\n        require(!manuallyEnded);\n\n        // Make sure the amount to reclaim is more than 0\n        require(_amount > 0);\n\n        // Subtract the amount to be reclaimed from the state variable which\n        // tracks the total amount paid per address\n        uint _newTotal = SafeMath.sub(addressBalance[_caller], _amount);\n\n        // The amount must not be negative, or the contract is buggy\n        assert(_newTotal >= 0);\n\n        // Update the state to prevent double-spending\n        addressBalance[_caller] = _newTotal;\n\n        // Make the transfer\n        _caller.transfer(_amount);\n\n        // Emit the event\n        Reclaimed(_caller, _amount);\n    }\n\n    function donate () public {\n        // donate() can only be called once\n        assert(donated == false);\n\n        // Only the contract owner or the charity address may send the funds to\n        // charityAddress\n        require(msg.sender == owner || msg.sender == charityAddress);\n\n        // The auction must be over\n        require(hasExpired());\n\n        // If the auction has been manually ended at this point, the contract\n        // is buggy\n        assert(!manuallyEnded);\n\n        // There must be at least 1 bid, or the contract is buggy\n        assert(bids.length > 0);\n\n        // Calculate the amount to donate\n        uint _amount;\n        if (bids.length == 1) {\n            // If there is only 1 bid, transfer that amount\n            _amount = bids[0].amount;\n        } else {\n            // If there is more than 1 bid, transfer the second highest bid\n            _amount = bids[SafeMath.sub(bids.length, 2)].amount;\n        }\n\n        // The amount to be donated must be more than 0, or this contract is\n        // buggy\n        assert(_amount > 0);\n\n        // Prevent double-donating\n        donated = true;\n\n        // Transfer the winning bid amount to charity\n        charityAddress.transfer(_amount);\n        Donated(_amount);\n    }\n\n    function calcCurrentMinBid () public view returns (uint) {\n        if (bids.length == 0) {\n            return MIN_BID;\n        } else {\n            uint _lastBidId = SafeMath.sub(bids.length, 1);\n            uint _lastBidAmt = bids[_lastBidId].amount;\n            return SafeMath.add(_lastBidAmt, BID_STEP);\n        }\n    }\n\n    function calcAmtReclaimable (address _bidder) public view returns (uint) {\n        // This function calculates the amount that _bidder can get back.\n\n        // A. if the auction is over, and _bidder is the winner, they should\n        // get back the total amount bid minus the second highest bid.\n\n        // B. if the auction is not over, and _bidder is not the current\n        // winner, they should get back the total they had bid\n\n        // C. if the auction is ongoing, and _bidder is the current winner,\n        // they should get back the total amount they had bid minus the top\n        // bid.\n\n        // D. if the auction is ongoing, and _bidder is not the current winner,\n        // they should get back the total amount they had bid.\n\n        uint _totalAmt = addressBalance[_bidder];\n\n        if (bids.length == 0) {\n            return 0;\n        }\n\n        if (bids[SafeMath.sub(bids.length, 1)].bidder == _bidder) {\n            // If the bidder is the current winner\n            if (hasExpired()) { // scenario A\n                uint _secondPrice = bids[SafeMath.sub(bids.length, 2)].amount;\n                return SafeMath.sub(_totalAmt, _secondPrice);\n\n            } else { // scenario C\n                uint _highestPrice = bids[SafeMath.sub(bids.length, 1)].amount;\n                return SafeMath.sub(_totalAmt, _highestPrice);\n            }\n\n        } else { // scenarios B and D\n            // If the bidder is not the current winner\n            return _totalAmt;\n        }\n    }\n\n    function getBidIds () public view returns (uint[]) {\n        return bidIds;\n    }\n\n    // Calcuate the timestamp after which the auction will expire\n    function expiryTimestamp () public view returns (uint) {\n        uint _numBids = bids.length;\n\n        // There is no expiry if there are no bids\n        require(_numBids > 0);\n\n        // The timestamp of the most recent bid\n        uint _lastBidTimestamp = bids[SafeMath.sub(_numBids, 1)].timestamp;\n\n        if (_numBids <= INITIAL_BIDS) {\n            return SafeMath.add(_lastBidTimestamp, EXPIRY_DAYS_BEFORE);\n        } else {\n            return SafeMath.add(_lastBidTimestamp, EXPIRY_DAYS_AFTER);\n        }\n    }\n\n    function hasExpired () public view returns (bool) {\n        uint _numBids = bids.length;\n\n        // The auction cannot expire if there are no bids\n        if (_numBids == 0) {\n            return false;\n        } else {\n            // Compare with the current time\n            return now >= this.expiryTimestamp();\n        }\n    }\n}\n\n\n// Contents of AUTHOR.asc and AUTHOR (remove the backslashes which preface each\n// line)\n\n// AUTHOR.asc:\n//-----BEGIN PGP SIGNATURE-----\n//\n//iQIzBAABCAAdBQJak6eBFhxjb250YWN0QGtvaHdlaWppZS5jb20ACgkQkNtDYXzM\n//FjKytA/+JF75jH+d/9nEitJKRcsrFgadVjMwNjUt1B7IvoZJqpHj9BSHtKhsVEI5\n//iME24rgbr3YRXLi7GbQS+Ovyf3Ks7BHCA/t12PWOVm9zRBEswojZIg1UjTqtYboS\n//0xrnrY8A71g1RX/jN4uCQ9FohRMAPzTTV9Gt6XDpB9Uzk0HBkUOpVHPnqxSerzbp\n//fSwTCzLgcsTKUJYfeOQMuSwTTXc/btJss82WQpK76xdi5+4hp3tjyZZuY7ruj60N\n//g9f9pHafsWRujMhmX0G8btjK/7/cJL/KbFFafb3sA7Xes0uoUbs+pQXTvuMBx2g5\n//1/BH63aHXdZC2/767JyR18gZN6PnwsZt7i8CowvDcGMni5f0la4O53HCZEGaHYFf\n//IKnJX4LhEJEezcflqSgxm1y7hlUFqC1T7janL0s4rCxoW7iPgNlii62vSzg0TTwH\n//9L6v8aYwWgAwfma2o3XWMCjA/K/BIfWd2w+1ex/gvTVCefOxz1zEPdjhWh89fopb\n//ydxV4fllXLXoB2wmv305E4eryq4lX40w9WxO7Dxq3yU+fmK8BaXLsjUf4fT9AU1m\n//VEo3ndjFXkSELwqTQalxod41j4rYxS6SyxOj6R3/3ejbJIL0kzwKuDlZIkj8Xsfx\n//o2b+QtKANMwC2KRZQBnNdnF2XVOCEFW1XZykWPW6FR1iYS6WEJ0=\n//=J3JJ\n//-----END PGP SIGNATURE-----\n\n// AUTHOR:\n//Koh Wei Jie <contact@kohweijie.com>\n",
  "sourcePath": "/home/di/hireme/contracts/HireMe.sol",
  "compiler": {
    "name": "solc",
    "version": "0.4.19+commit.c4cbbb05.Emscripten.clang"
  },
  "schemaVersion": "1.0.1",
  "updatedAt": "2018-03-05T09:40:52.515Z"
}