{
  "contractName": "HireMe",
  "abi": [
    {
      "constant": true,
      "inputs": [
        {
          "name": "",
          "type": "address"
        }
      ],
      "name": "addressToTotalPaid",
      "outputs": [
        {
          "name": "",
          "type": "uint256"
        }
      ],
      "payable": false,
      "stateMutability": "view",
      "type": "function"
    },
    {
      "constant": true,
      "inputs": [
        {
          "name": "",
          "type": "uint256"
        }
      ],
      "name": "bids",
      "outputs": [
        {
          "name": "exists",
          "type": "bool"
        },
        {
          "name": "id",
          "type": "uint256"
        },
        {
          "name": "timestamp",
          "type": "uint256"
        },
        {
          "name": "bidder",
          "type": "address"
        },
        {
          "name": "amount",
          "type": "uint256"
        },
        {
          "name": "email",
          "type": "string"
        },
        {
          "name": "organisation",
          "type": "string"
        }
      ],
      "payable": false,
      "stateMutability": "view",
      "type": "function"
    },
    {
      "constant": true,
      "inputs": [],
      "name": "manuallyEnded",
      "outputs": [
        {
          "name": "",
          "type": "bool"
        }
      ],
      "payable": false,
      "stateMutability": "view",
      "type": "function"
    },
    {
      "constant": true,
      "inputs": [],
      "name": "donated",
      "outputs": [
        {
          "name": "",
          "type": "bool"
        }
      ],
      "payable": false,
      "stateMutability": "view",
      "type": "function"
    },
    {
      "constant": true,
      "inputs": [],
      "name": "owner",
      "outputs": [
        {
          "name": "",
          "type": "address"
        }
      ],
      "payable": false,
      "stateMutability": "view",
      "type": "function"
    },
    {
      "constant": true,
      "inputs": [],
      "name": "charityAddress",
      "outputs": [
        {
          "name": "",
          "type": "address"
        }
      ],
      "payable": false,
      "stateMutability": "view",
      "type": "function"
    },
    {
      "constant": true,
      "inputs": [
        {
          "name": "",
          "type": "uint256"
        }
      ],
      "name": "bidIds",
      "outputs": [
        {
          "name": "",
          "type": "uint256"
        }
      ],
      "payable": false,
      "stateMutability": "view",
      "type": "function"
    },
    {
      "constant": false,
      "inputs": [
        {
          "name": "newOwner",
          "type": "address"
        }
      ],
      "name": "transferOwnership",
      "outputs": [],
      "payable": false,
      "stateMutability": "nonpayable",
      "type": "function"
    },
    {
      "constant": true,
      "inputs": [],
      "name": "AUTHORSIGHASH",
      "outputs": [
        {
          "name": "",
          "type": "string"
        }
      ],
      "payable": false,
      "stateMutability": "view",
      "type": "function"
    },
    {
      "anonymous": false,
      "inputs": [
        {
          "indexed": true,
          "name": "id",
          "type": "uint256"
        },
        {
          "indexed": true,
          "name": "bidder",
          "type": "address"
        },
        {
          "indexed": true,
          "name": "amount",
          "type": "uint256"
        }
      ],
      "name": "BidMade",
      "type": "event"
    },
    {
      "anonymous": false,
      "inputs": [
        {
          "indexed": true,
          "name": "bidder",
          "type": "address"
        },
        {
          "indexed": true,
          "name": "amount",
          "type": "uint256"
        }
      ],
      "name": "Reclaimed",
      "type": "event"
    },
    {
      "anonymous": false,
      "inputs": [
        {
          "indexed": true,
          "name": "amount",
          "type": "uint256"
        }
      ],
      "name": "Donated",
      "type": "event"
    },
    {
      "anonymous": false,
      "inputs": [
        {
          "indexed": true,
          "name": "previousOwner",
          "type": "address"
        },
        {
          "indexed": true,
          "name": "newOwner",
          "type": "address"
        }
      ],
      "name": "OwnershipTransferred",
      "type": "event"
    },
    {
      "constant": false,
      "inputs": [],
      "name": "manuallyEndAuction",
      "outputs": [],
      "payable": false,
      "stateMutability": "nonpayable",
      "type": "function"
    },
    {
      "constant": false,
      "inputs": [
        {
          "name": "_email",
          "type": "string"
        },
        {
          "name": "_organisation",
          "type": "string"
        }
      ],
      "name": "bid",
      "outputs": [],
      "payable": true,
      "stateMutability": "payable",
      "type": "function"
    },
    {
      "constant": false,
      "inputs": [],
      "name": "reclaim",
      "outputs": [],
      "payable": false,
      "stateMutability": "nonpayable",
      "type": "function"
    },
    {
      "constant": false,
      "inputs": [],
      "name": "donate",
      "outputs": [],
      "payable": false,
      "stateMutability": "nonpayable",
      "type": "function"
    },
    {
      "constant": true,
      "inputs": [],
      "name": "calcCurrentMinBid",
      "outputs": [
        {
          "name": "",
          "type": "uint256"
        }
      ],
      "payable": false,
      "stateMutability": "view",
      "type": "function"
    },
    {
      "constant": true,
      "inputs": [
        {
          "name": "_bidder",
          "type": "address"
        }
      ],
      "name": "calcAmtReclaimable",
      "outputs": [
        {
          "name": "",
          "type": "uint256"
        }
      ],
      "payable": false,
      "stateMutability": "view",
      "type": "function"
    },
    {
      "constant": true,
      "inputs": [],
      "name": "getBidIds",
      "outputs": [
        {
          "name": "",
          "type": "uint256[]"
        }
      ],
      "payable": false,
      "stateMutability": "view",
      "type": "function"
    },
    {
      "constant": true,
      "inputs": [],
      "name": "hasExpired",
      "outputs": [
        {
          "name": "",
          "type": "bool"
        }
      ],
      "payable": false,
      "stateMutability": "view",
      "type": "function"
    }
  ],
  "bytecode": "0x60606040526000600360006101000a81548160ff0219169083151502179055506000600360016101000a81548160ff02191690831515021790555073635599b0ab4b5c6b1392e0a2d1d69cf7d1dddf02600360026101000a81548173ffffffffffffffffffffffffffffffffffffffff021916908373ffffffffffffffffffffffffffffffffffffffff160217905550336000806101000a81548173ffffffffffffffffffffffffffffffffffffffff021916908373ffffffffffffffffffffffffffffffffffffffff1602179055506116b8806100de6000396000f3006060604052600436106100f1576000357c0100000000000000000000000000000000000000000000000000000000900463ffffffff168063185b46ed146100f65780634423c5f11461014357806353b382ea146102d8578063639bbb371461030557806380e9071b146103325780638da5cb5b1461034757806390e64d131461039c578063a4f2613d146103c9578063afcf2fc41461045e578063ceacc749146104b3578063d213f109146104dc578063d3946ea414610529578063da9d56d71461053e578063ec3e4e6f146105a8578063ed88c68e146105df578063f2fde38b146105f4578063f4da6a541461062d575b600080fd5b341561010157600080fd5b61012d600480803573ffffffffffffffffffffffffffffffffffffffff169060200190919050506106bb565b6040518082815260200191505060405180910390f35b341561014e57600080fd5b61016460048080359060200190919050506106d3565b60405180881515151581526020018781526020018681526020018573ffffffffffffffffffffffffffffffffffffffff1673ffffffffffffffffffffffffffffffffffffffff168152602001848152602001806020018060200183810383528581815460018160011615610100020316600290048152602001915080546001816001161561010002031660029004801561023f5780601f106102145761010080835404028352916020019161023f565b820191906000526020600020905b81548152906001019060200180831161022257829003601f168201915b50508381038252848181546001816001161561010002031660029004815260200191508054600181600116156101000203166002900480156102c25780601f10610297576101008083540402835291602001916102c2565b820191906000526020600020905b8154815290600101906020018083116102a557829003601f168201915b5050995050505050505050505060405180910390f35b34156102e357600080fd5b6102eb61074f565b604051808215151515815260200191505060405180910390f35b341561031057600080fd5b610318610762565b604051808215151515815260200191505060405180910390f35b341561033d57600080fd5b610345610775565b005b341561035257600080fd5b61035a6108ed565b604051808273ffffffffffffffffffffffffffffffffffffffff1673ffffffffffffffffffffffffffffffffffffffff16815260200191505060405180910390f35b34156103a757600080fd5b6103af610912565b604051808215151515815260200191505060405180910390f35b61045c600480803590602001908201803590602001908080601f0160208091040260200160405190810160405280939291908181526020018383808284378201915050505050509190803590602001908201803590602001908080601f01602080910402602001604051908101604052809392919081815260200183838082843782019150505050505091905050610995565b005b341561046957600080fd5b610471610d36565b604051808273ffffffffffffffffffffffffffffffffffffffff1673ffffffffffffffffffffffffffffffffffffffff16815260200191505060405180910390f35b34156104be57600080fd5b6104c6610d5c565b6040518082815260200191505060405180910390f35b34156104e757600080fd5b610513600480803573ffffffffffffffffffffffffffffffffffffffff16906020019091905050610dcc565b6040518082815260200191505060405180910390f35b341561053457600080fd5b61053c610f4d565b005b341561054957600080fd5b610551610ffb565b6040518080602001828103825283818151815260200191508051906020019060200280838360005b83811015610594578082015181840152602081019050610579565b505050509050019250505060405180910390f35b34156105b357600080fd5b6105c96004808035906020019091905050611059565b6040518082815260200191505060405180910390f35b34156105ea57600080fd5b6105f261107d565b005b34156105ff57600080fd5b61062b600480803573ffffffffffffffffffffffffffffffffffffffff169060200190919050506112af565b005b341561063857600080fd5b610640611404565b6040518080602001828103825283818151815260200191508051906020019080838360005b83811015610680578082015181840152602081019050610665565b50505050905090810190601f1680156106ad5780820380516001836020036101000a031916815260200191505b509250505060405180910390f35b60046020528060005260406000206000915090505481565b6001818154811015156106e257fe5b90600052602060002090600702016000915090508060000160009054906101000a900460ff16908060010154908060020154908060030160009054906101000a900473ffffffffffffffffffffffffffffffffffffffff1690806004015490806005019080600601905087565b600360019054906101000a900460ff1681565b600360009054906101000a900460ff1681565b600080600060026001805490501015151561078f57600080fd5b600360019054906101000a900460ff161515156107ab57600080fd5b3392506107b783610dcc565b91506000821115156107c857600080fd5b610811600460008573ffffffffffffffffffffffffffffffffffffffff1673ffffffffffffffffffffffffffffffffffffffff1681526020019081526020016000205483611464565b90506000811015151561082057fe5b80600460008573ffffffffffffffffffffffffffffffffffffffff1673ffffffffffffffffffffffffffffffffffffffff168152602001908152602001600020819055508273ffffffffffffffffffffffffffffffffffffffff166108fc839081150290604051600060405180830381858888f1935050505015156108a457600080fd5b818373ffffffffffffffffffffffffffffffffffffffff167fcab347be18c8c37ef504626a027a12ea6725f491b5f5b154778d8d0c54f7841e60405160405180910390a3505050565b6000809054906101000a900473ffffffffffffffffffffffffffffffffffffffff1681565b6000806000600180549050915060008214156109315760009250610990565b600161093e836001611464565b81548110151561094a57fe5b906000526020600020906007020160020154905060048211151561097e5761097481610e1061147d565b4210159250610990565b61098a81610e1061147d565b42101592505b505090565b600080600033925034915060018054905090506109b0610912565b1580156109ca5750600360019054906101000a900460ff16155b15156109d557600080fd5b6000809054906101000a900473ffffffffffffffffffffffffffffffffffffffff1673ffffffffffffffffffffffffffffffffffffffff168373ffffffffffffffffffffffffffffffffffffffff1614158015610a805750600360029054906101000a900473ffffffffffffffffffffffffffffffffffffffff1673ffffffffffffffffffffffffffffffffffffffff168373ffffffffffffffffffffffffffffffffffffffff1614155b1515610a8b57600080fd5b600073ffffffffffffffffffffffffffffffffffffffff168373ffffffffffffffffffffffffffffffffffffffff1614151515610ac757600080fd5b60008551111515610ad757600080fd5b60008451111515610ae757600080fd5b610aef610d5c565b8210151515610afd57600080fd5b60018054806001018281610b11919061149b565b9160005260206000209060070201600060e0604051908101604052806001151581526020018581526020014281526020018773ffffffffffffffffffffffffffffffffffffffff16815260200186815260200189815260200188815250909190915060008201518160000160006101000a81548160ff021916908315150217905550602082015181600101556040820151816002015560608201518160030160006101000a81548173ffffffffffffffffffffffffffffffffffffffff021916908373ffffffffffffffffffffffffffffffffffffffff1602179055506080820151816004015560a0820151816005019080519060200190610c149291906114cd565b5060c0820151816006019080519060200190610c319291906114cd565b5050505060028054806001018281610c49919061154d565b916000526020600020900160008390919091505550610ca7600460008573ffffffffffffffffffffffffffffffffffffffff1673ffffffffffffffffffffffffffffffffffffffff168152602001908152602001600020548361147d565b600460008573ffffffffffffffffffffffffffffffffffffffff1673ffffffffffffffffffffffffffffffffffffffff16815260200190815260200160002081905550818373ffffffffffffffffffffffffffffffffffffffff16827f1deb95696ada9b84bb35fed5fed94d6f185f9b547732b7e1b48df32597b5dfba60405160405180910390a45050505050565b600360029054906101000a900473ffffffffffffffffffffffffffffffffffffffff1681565b6000806000806001805490501415610d7e57670de0b6b3a76400009250610dc7565b610d8e6001805490506001611464565b9150600182815481101515610d9f57fe5b9060005260206000209060070201600401549050610dc481662386f26fc1000061147d565b92505b505090565b600080600080600460008673ffffffffffffffffffffffffffffffffffffffff1673ffffffffffffffffffffffffffffffffffffffff16815260200190815260200160002054925060006001805490501415610e2b5760009350610f45565b8473ffffffffffffffffffffffffffffffffffffffff166001610e546001805490506001611464565b815481101515610e6057fe5b906000526020600020906007020160030160009054906101000a900473ffffffffffffffffffffffffffffffffffffffff1673ffffffffffffffffffffffffffffffffffffffff161415610f4157610eb6610912565b15610efe576001610ecd6001805490506002611464565b815481101515610ed957fe5b9060005260206000209060070201600401549150610ef78383611464565b9350610f45565b6001610f106001805490506001611464565b815481101515610f1c57fe5b9060005260206000209060070201600401549050610f3a8382611464565b9350610f45565b8293505b505050919050565b6000809054906101000a900473ffffffffffffffffffffffffffffffffffffffff1673ffffffffffffffffffffffffffffffffffffffff163373ffffffffffffffffffffffffffffffffffffffff16141515610fa857600080fd5b60001515600360019054906101000a900460ff161515141515610fca57600080fd5b6000600180549050141515610fde57600080fd5b6001600360016101000a81548160ff021916908315150217905550565b611003611579565b600280548060200260200160405190810160405280929190818152602001828054801561104f57602002820191906000526020600020905b81548152602001906001019080831161103b575b5050505050905090565b60028181548110151561106857fe5b90600052602060002090016000915090505481565b6000801515600360009054906101000a900460ff16151514151561109d57fe5b6000809054906101000a900473ffffffffffffffffffffffffffffffffffffffff1673ffffffffffffffffffffffffffffffffffffffff163373ffffffffffffffffffffffffffffffffffffffff1614806111455750600360029054906101000a900473ffffffffffffffffffffffffffffffffffffffff1673ffffffffffffffffffffffffffffffffffffffff163373ffffffffffffffffffffffffffffffffffffffff16145b151561115057600080fd5b611158610912565b151561116357600080fd5b600360019054906101000a900460ff1615151561117c57fe5b600060018054905011151561118d57fe5b6001808054905014156111c357600160008154811015156111aa57fe5b90600052602060002090600702016004015490506111f6565b60016111d56001805490506002611464565b8154811015156111e157fe5b90600052602060002090600702016004015490505b60008111151561120257fe5b6001600360006101000a81548160ff021916908315150217905550600360029054906101000a900473ffffffffffffffffffffffffffffffffffffffff1673ffffffffffffffffffffffffffffffffffffffff166108fc829081150290604051600060405180830381858888f19350505050151561127f57600080fd5b807fa7035481213199a4d64792e8c2fc7bff2b334e0935d33eaabc063a116485663360405160405180910390a250565b6000809054906101000a900473ffffffffffffffffffffffffffffffffffffffff1673ffffffffffffffffffffffffffffffffffffffff163373ffffffffffffffffffffffffffffffffffffffff1614151561130a57600080fd5b600073ffffffffffffffffffffffffffffffffffffffff168173ffffffffffffffffffffffffffffffffffffffff161415151561134657600080fd5b8073ffffffffffffffffffffffffffffffffffffffff166000809054906101000a900473ffffffffffffffffffffffffffffffffffffffff1673ffffffffffffffffffffffffffffffffffffffff167f8be0079c531659141344cd1fd0a4f28419497f9722a3daafe3b4186f6b6457e060405160405180910390a3806000806101000a81548173ffffffffffffffffffffffffffffffffffffffff021916908373ffffffffffffffffffffffffffffffffffffffff16021790555050565b606060405190810160405280604081526020017f386338623832613264383361333363623066343566356636623232623435633181526020017f393535663038666335346537616234643965373666623736383433633439313881525081565b600082821115151561147257fe5b818303905092915050565b600080828401905083811015151561149157fe5b8091505092915050565b8154818355818115116114c8576007028160070283600052602060002091820191016114c7919061158d565b5b505050565b828054600181600116156101000203166002900490600052602060002090601f016020900481019282601f1061150e57805160ff191683800117855561153c565b8280016001018555821561153c579182015b8281111561153b578251825591602001919060010190611520565b5b509050611549919061161f565b5090565b81548183558181151161157457818360005260206000209182019101611573919061161f565b5b505050565b602060405190810160405280600081525090565b61161c91905b8082111561161857600080820160006101000a81549060ff0219169055600182016000905560028201600090556003820160006101000a81549073ffffffffffffffffffffffffffffffffffffffff021916905560048201600090556005820160006115ff9190611644565b60068201600061160f9190611644565b50600701611593565b5090565b90565b61164191905b8082111561163d576000816000905550600101611625565b5090565b90565b50805460018160011615610100020316600290046000825580601f1061166a5750611689565b601f016020900490600052602060002090810190611688919061161f565b5b505600a165627a7a7230582032128c646a54eb37f779ddf86cc675ac1211cf1cdf2f071f3be625005577c3f00029",
  "source": "pragma solidity 0.4.19;\n\nimport \"zeppelin-solidity/contracts/math/SafeMath.sol\";\nimport \"zeppelin-solidity/contracts/ownership/Ownable.sol\";\n\n\n// The frontend for this smart contract is a dApp hosted at\n// https://hire.kohweijie.com\ncontract HireMe is Ownable {\n    // Data structure representing a single bid\n    struct Bid {\n        bool exists;         // 0. Whether the bid exists\n        uint id;             // 1. The ID of the bid.\n        uint timestamp;      // 2. The timestamp of when the bid was made\n        address bidder;      // 3. The address of the bidder\n        uint amount;         // 4. The amount of ETH in the bid\n        string email;        // 5. The bidder's email address\n        string organisation; // 6. The bidder's organisation\n    }\n\n    event BidMade(uint indexed id, address indexed bidder, uint indexed amount);\n    event Reclaimed(address indexed bidder, uint indexed amount);\n    event Donated(uint indexed amount);\n\n    Bid[] public bids;\n    uint[] public bidIds;\n    uint private constant MIN_BID = 1 ether;\n    uint private constant BID_STEP = 0.01 ether;\n    uint private constant INITIAL_BIDS = 4;\n\n    //uint private constant EXPIRY_DAYS_BEFORE = 7 days;\n    //uint private constant EXPIRY_DAYS_AFTER = 3 days;\n\n    uint private constant EXPIRY_DAYS_BEFORE = 1 hours;\n    uint private constant EXPIRY_DAYS_AFTER = 1 hours;\n\n    string public constant AUTHORSIGHASH = \"8c8b82a2d83a33cb0f45f5f6b22b45c1955f08fc54e7ab4d9e76fb76843c4918\";\n    bool public donated = false;\n    bool public manuallyEnded = false;\n    // The Internet Archive's ETH donation address\n    address public charityAddress = 0x635599b0ab4b5c6B1392e0a2D1d69cF7d1ddDF02;\n    mapping (address => uint) public addressToTotalPaid;\n\n    // Only the contract owner may end this contract if there are 0 bids.\n    function manuallyEndAuction () public onlyOwner {\n        require(manuallyEnded == false);\n        require(bids.length == 0);\n        manuallyEnded = true;\n    }\n\n    function bid(string _email, string _organisation) public payable {\n        address _bidder = msg.sender;\n        uint _amount = msg.value;\n        uint _id = bids.length;\n\n        // The auction must not be over\n        require(!hasExpired() && !manuallyEnded);\n\n        // The bidder must be neither the contract owner nor the charity\n        // donation address\n        require(_bidder != owner && _bidder != charityAddress);\n\n        // The bidder address, email, and organisation must valid\n        require(_bidder != address(0));\n        require(bytes(_email).length > 0);\n        require(bytes(_organisation).length > 0);\n\n        // Make sure the amount bid is more than the rolling minimum bid\n        require(_amount >= calcCurrentMinBid());\n\n        // Update the state with the new bid\n        bids.push(Bid(true, _id, now, _bidder, _amount, _email, _organisation));\n        bidIds.push(_id);\n\n        // Add, not replace, the state variable which tracks the total amount\n        // paid per address, because a bidder may make multiple bids\n        addressToTotalPaid[_bidder] = SafeMath.add(addressToTotalPaid[_bidder], _amount);\n\n        // Emit the event\n        BidMade(_id, _bidder, _amount);\n    }\n\n    function reclaim () public {\n        // There must be at least 2 bids. Note that if there is only 1 bid and\n        // that bid is the winning bid, it cannot be reclaimed.\n        require(bids.length >= 2);\n\n        // The auction must not have been manually ended\n        require(!manuallyEnded);\n\n        address _caller = msg.sender;\n        uint _amount = calcAmtReclaimable(_caller);\n\n        // Make sure the amount to reclaim is more than 0\n        require(_amount > 0);\n\n        // Subtract the calculated amount to be reclaimed from the state\n        // variable which tracks the total amount paid per address\n        uint _newTotal = SafeMath.sub(addressToTotalPaid[_caller], _amount);\n\n        // The amount must not be negative, or the contract is buggy\n        assert(_newTotal >= 0);\n\n        // Update the state to prevent double-spending\n        addressToTotalPaid[_caller] = _newTotal;\n\n        // Make the transfer\n        _caller.transfer(_amount);\n\n        // Emit the event\n        Reclaimed(_caller, _amount);\n    }\n\n    function donate () public {\n        // donate() can only be called once\n        assert(donated == false);\n\n        // Only the contract owner or the charity address may send the funds to\n        // charityAddress\n        require(msg.sender == owner || msg.sender == charityAddress);\n\n        // The auction must be over\n        require(hasExpired());\n\n        // If the auction has been manually ended at this point, the contract\n        // is buggy\n        assert(!manuallyEnded);\n\n        // There must be at least 1 bid\n        assert(bids.length > 0);\n\n        // Transfer the winning bid amount to charity\n        uint _amount;\n        if (bids.length == 1) {\n            // If there is only 1 bid, transfer that amount\n            _amount = bids[0].amount;\n        } else {\n            // If there is more than 1 bid, transfer the second highest bid\n            _amount = bids[SafeMath.sub(bids.length, 2)].amount;\n        }\n\n        assert(_amount > 0);\n        donated = true;\n\n        charityAddress.transfer(_amount);\n        Donated(_amount);\n    }\n\n    function calcCurrentMinBid () public view returns (uint) {\n        if (bids.length == 0) {\n            return MIN_BID;\n        } else {\n            uint _lastBidId = SafeMath.sub(bids.length, 1);\n            uint _lastBidAmt = bids[_lastBidId].amount;\n            return SafeMath.add(_lastBidAmt, BID_STEP);\n        }\n    }\n\n    function calcAmtReclaimable (address _bidder) public view returns (uint) {\n        // This function calculates the amount that _bidder can get back.\n\n        // A. if the auction is over, and _bidder is the winner, they should\n        // get back the total amount bid minus the second highest bid.\n\n        // B. if the auction is not over, and _bidder is not the winner, they\n        // should get back the total they had bid\n\n        // C. if the auction is ongoing, and _bidder is the current winner,\n        // they should get back the total amount bid minus the top bid.\n\n        // D. if the auction is ongoing, and _bidder is not the current winner,\n        // they should get back the total amount they had bid.\n\n        uint _totalAmt = addressToTotalPaid[_bidder];\n\n        if (bids.length == 0) {\n            return 0;\n        }\n\n        if (bids[SafeMath.sub(bids.length, 1)].bidder == _bidder) {\n            // If the bidder is the current winner\n            if (hasExpired()) { // scenario A\n                uint _secondPrice = bids[SafeMath.sub(bids.length, 2)].amount;\n\n                return SafeMath.sub(_totalAmt, _secondPrice);\n\n            } else { // scenario C\n                uint _highestPrice = bids[SafeMath.sub(bids.length, 1)].amount;\n                return SafeMath.sub(_totalAmt, _highestPrice);\n            }\n\n        } else { // scenarios B and D\n            return _totalAmt;\n        }\n    }\n\n    function getBidIds () public view returns (uint[]) {\n        return bidIds;\n    }\n\n    function hasExpired () public view returns (bool) {\n        uint _numBids = bids.length;\n\n        // The auction cannot expire if there are no bids\n        if (_numBids == 0) {\n            return false;\n        }\n\n        // The timestamp of the most recent bid\n        uint _lastBidTimestamp = bids[SafeMath.sub(_numBids, 1)].timestamp;\n\n        // The expiry period depends on how many bids there are.\n        if (_numBids <= INITIAL_BIDS) {\n            return now >= SafeMath.add(_lastBidTimestamp, EXPIRY_DAYS_BEFORE);\n\n        } else {\n            return now >= SafeMath.add(_lastBidTimestamp, EXPIRY_DAYS_AFTER);\n        }\n    }\n}\n",
  "sourcePath": "/home/di/hireme/contracts/HireMe.sol",
  "compiler": {
    "name": "solc",
    "version": "0.4.19+commit.c4cbbb05.Emscripten.clang"
  },
  "schemaVersion": "1.0.1",
  "updatedAt": "2018-03-02T04:17:44.138Z"
}